{
  "_format": "hh-sol-artifact-1",
  "contractName": "TransparentCharity",
  "sourceName": "contracts/TransparentCharity.sol",
  "abi": [
    {
      "anonymous": false,
      "inputs": [
        {
          "indexed": true,
          "internalType": "uint256",
          "name": "id",
          "type": "uint256"
        },
        {
          "indexed": false,
          "internalType": "string",
          "name": "name",
          "type": "string"
        },
        {
          "indexed": false,
          "internalType": "uint256",
          "name": "targetAmount",
          "type": "uint256"
        },
        {
          "indexed": false,
          "internalType": "address",
          "name": "owner",
          "type": "address"
        }
      ],
      "name": "CampaignCreated",
      "type": "event"
    },
    {
      "anonymous": false,
      "inputs": [
        {
          "indexed": true,
          "internalType": "uint256",
          "name": "campaignId",
          "type": "uint256"
        },
        {
          "indexed": true,
          "internalType": "address",
          "name": "donor",
          "type": "address"
        },
        {
          "indexed": false,
          "internalType": "uint256",
          "name": "amount",
          "type": "uint256"
        }
      ],
      "name": "DonationReceived",
      "type": "event"
    },
    {
      "anonymous": false,
      "inputs": [
        {
          "indexed": true,
          "internalType": "uint256",
          "name": "campaignId",
          "type": "uint256"
        },
        {
          "indexed": false,
          "internalType": "uint256",
          "name": "amount",
          "type": "uint256"
        },
        {
          "indexed": false,
          "internalType": "address",
          "name": "owner",
          "type": "address"
        }
      ],
      "name": "FundsWithdrawn",
      "type": "event"
    },
    {
      "anonymous": false,
      "inputs": [
        {
          "indexed": true,
          "internalType": "uint256",
          "name": "campaignId",
          "type": "uint256"
        },
        {
          "indexed": false,
          "internalType": "string",
          "name": "proofHash",
          "type": "string"
        }
      ],
      "name": "ProofUploaded",
      "type": "event"
    },
    {
      "inputs": [],
      "name": "campaignCount",
      "outputs": [
        {
          "internalType": "uint256",
          "name": "",
          "type": "uint256"
        }
      ],
      "stateMutability": "view",
      "type": "function"
    },
    {
      "inputs": [
        {
          "internalType": "uint256",
          "name": "",
          "type": "uint256"
        }
      ],
      "name": "campaigns",
      "outputs": [
        {
          "internalType": "uint256",
          "name": "id",
          "type": "uint256"
        },
        {
          "internalType": "string",
          "name": "name",
          "type": "string"
        },
        {
          "internalType": "string",
          "name": "description",
          "type": "string"
        },
        {
          "internalType": "address payable",
          "name": "owner",
          "type": "address"
        },
        {
          "internalType": "uint256",
          "name": "targetAmount",
          "type": "uint256"
        },
        {
          "internalType": "uint256",
          "name": "amountRaised",
          "type": "uint256"
        },
        {
          "internalType": "bool",
          "name": "withdrawn",
          "type": "bool"
        },
        {
          "internalType": "string",
          "name": "proofHash",
          "type": "string"
        }
      ],
      "stateMutability": "view",
      "type": "function"
    },
    {
      "inputs": [
        {
          "internalType": "string",
          "name": "_name",
          "type": "string"
        },
        {
          "internalType": "string",
          "name": "_description",
          "type": "string"
        },
        {
          "internalType": "uint256",
          "name": "_targetAmount",
          "type": "uint256"
        }
      ],
      "name": "createCampaign",
      "outputs": [],
      "stateMutability": "nonpayable",
      "type": "function"
    },
    {
      "inputs": [
        {
          "internalType": "uint256",
          "name": "_campaignId",
          "type": "uint256"
        }
      ],
      "name": "donate",
      "outputs": [],
      "stateMutability": "payable",
      "type": "function"
    },
    {
      "inputs": [
        {
          "internalType": "uint256",
          "name": "_campaignId",
          "type": "uint256"
        }
      ],
      "name": "getCampaign",
      "outputs": [
        {
          "internalType": "uint256",
          "name": "id",
          "type": "uint256"
        },
        {
          "internalType": "string",
          "name": "name",
          "type": "string"
        },
        {
          "internalType": "string",
          "name": "description",
          "type": "string"
        },
        {
          "internalType": "address",
          "name": "owner",
          "type": "address"
        },
        {
          "internalType": "uint256",
          "name": "targetAmount",
          "type": "uint256"
        },
        {
          "internalType": "uint256",
          "name": "amountRaised",
          "type": "uint256"
        },
        {
          "internalType": "bool",
          "name": "withdrawn",
          "type": "bool"
        },
        {
          "internalType": "string",
          "name": "proofHash",
          "type": "string"
        }
      ],
      "stateMutability": "view",
      "type": "function"
    },
    {
      "inputs": [
        {
          "internalType": "uint256",
          "name": "_campaignId",
          "type": "uint256"
        }
      ],
      "name": "getDonations",
      "outputs": [
        {
          "components": [
            {
              "internalType": "address",
              "name": "donor",
              "type": "address"
            },
            {
              "internalType": "uint256",
              "name": "amount",
              "type": "uint256"
            },
            {
              "internalType": "uint256",
              "name": "timestamp",
              "type": "uint256"
            }
          ],
          "internalType": "struct TransparentCharity.Donation[]",
          "name": "",
          "type": "tuple[]"
        }
      ],
      "stateMutability": "view",
      "type": "function"
    },
    {
      "inputs": [
        {
          "internalType": "uint256",
          "name": "_campaignId",
          "type": "uint256"
        },
        {
          "internalType": "string",
          "name": "_proofHash",
          "type": "string"
        }
      ],
      "name": "uploadProof",
      "outputs": [],
      "stateMutability": "nonpayable",
      "type": "function"
    },
    {
      "inputs": [
        {
          "internalType": "uint256",
          "name": "_campaignId",
          "type": "uint256"
        }
      ],
      "name": "withdrawFunds",
      "outputs": [],
      "stateMutability": "nonpayable",
      "type": "function"
    }
  ],
  "bytecode": "0x608060405234801561001057600080fd5b50611df5806100206000396000f3fe60806040526004361061007b5760003560e01c80637274e30d1161004e5780637274e30d1461016e578063f14faf6f14610199578063fc0990fe146101b5578063ffa56a57146101de5761007b565b8063141961bc14610080578063155dd5ee146100c45780635598f8cc146100ed578063596d9ce214610131575b600080fd5b34801561008c57600080fd5b506100a760048036038101906100a2919061100a565b610207565b6040516100bb989796959493929190611132565b60405180910390f35b3480156100d057600080fd5b506100eb60048036038101906100e6919061100a565b610414565b005b3480156100f957600080fd5b50610114600480360381019061010f919061100a565b610679565b6040516101289897969594939291906111e6565b60405180910390f35b34801561013d57600080fd5b506101586004803603810190610153919061100a565b610902565b6040516101659190611388565b60405180910390f35b34801561017a57600080fd5b50610183610a34565b60405161019091906113aa565b60405180910390f35b6101b360048036038101906101ae919061100a565b610a3a565b005b3480156101c157600080fd5b506101dc60048036038101906101d791906114fa565b610cb8565b005b3480156101ea57600080fd5b5061020560048036038101906102009190611556565b610e47565b005b600160205280600052604060002060009150905080600001549080600101805461023090611610565b80601f016020809104026020016040519081016040528092919081815260200182805461025c90611610565b80156102a95780601f1061027e576101008083540402835291602001916102a9565b820191906000526020600020905b81548152906001019060200180831161028c57829003601f168201915b5050505050908060020180546102be90611610565b80601f01602080910402602001604051908101604052809291908181526020018280546102ea90611610565b80156103375780601f1061030c57610100808354040283529160200191610337565b820191906000526020600020905b81548152906001019060200180831161031a57829003601f168201915b5050505050908060030160009054906101000a900473ffffffffffffffffffffffffffffffffffffffff16908060040154908060050154908060060160009054906101000a900460ff169080600701805461039190611610565b80601f01602080910402602001604051908101604052809291908181526020018280546103bd90611610565b801561040a5780601f106103df5761010080835404028352916020019161040a565b820191906000526020600020905b8154815290600101906020018083116103ed57829003601f168201915b5050505050905088565b8060008111801561042757506000548111155b610466576040517f08c379a000000000000000000000000000000000000000000000000000000000815260040161045d9061168d565b60405180910390fd5b60006001600084815260200190815260200160002090508060030160009054906101000a900473ffffffffffffffffffffffffffffffffffffffff1673ffffffffffffffffffffffffffffffffffffffff163373ffffffffffffffffffffffffffffffffffffffff161461050f576040517f08c379a0000000000000000000000000000000000000000000000000000000008152600401610506906116f9565b60405180910390fd5b8060060160009054906101000a900460ff1615610561576040517f08c379a000000000000000000000000000000000000000000000000000000000815260040161055890611765565b60405180910390fd5b60008160050154116105a8576040517f08c379a000000000000000000000000000000000000000000000000000000000815260040161059f906117d1565b60405180910390fd5b60018160060160006101000a81548160ff0219169083151502179055506000816005015490508160030160009054906101000a900473ffffffffffffffffffffffffffffffffffffffff1673ffffffffffffffffffffffffffffffffffffffff166108fc829081150290604051600060405180830381858888f19350505050158015610638573d6000803e3d6000fd5b50837ff3b5906e5672f3e524854103bcafbbdba80dbdfeca2c35e116127b1060a68318823360405161066b9291906117f1565b60405180910390a250505050565b600060608060008060008060608860008111801561069957506000548111155b6106d8576040517f08c379a00000000000000000000000000000000000000000000000000000000081526004016106cf9061168d565b60405180910390fd5b6000600160008c81526020019081526020016000209050806000015481600101826002018360030160009054906101000a900473ffffffffffffffffffffffffffffffffffffffff16846004015485600501548660060160009054906101000a900460ff168760070186805461074d90611610565b80601f016020809104026020016040519081016040528092919081815260200182805461077990611610565b80156107c65780601f1061079b576101008083540402835291602001916107c6565b820191906000526020600020905b8154815290600101906020018083116107a957829003601f168201915b505050505096508580546107d990611610565b80601f016020809104026020016040519081016040528092919081815260200182805461080590611610565b80156108525780601f1061082757610100808354040283529160200191610852565b820191906000526020600020905b81548152906001019060200180831161083557829003601f168201915b5050505050955080805461086590611610565b80601f016020809104026020016040519081016040528092919081815260200182805461089190611610565b80156108de5780601f106108b3576101008083540402835291602001916108de565b820191906000526020600020905b8154815290600101906020018083116108c157829003601f168201915b50505050509050995099509950995099509950995099505050919395975091939597565b60608160008111801561091757506000548111155b610956576040517f08c379a000000000000000000000000000000000000000000000000000000000815260040161094d9061168d565b60405180910390fd5b60016000848152602001908152602001600020600801805480602002602001604051908101604052809291908181526020016000905b82821015610a2857838290600052602060002090600302016040518060600160405290816000820160009054906101000a900473ffffffffffffffffffffffffffffffffffffffff1673ffffffffffffffffffffffffffffffffffffffff1673ffffffffffffffffffffffffffffffffffffffff168152602001600182015481526020016002820154815250508152602001906001019061098c565b50505050915050919050565b60005481565b80600081118015610a4d57506000548111155b610a8c576040517f08c379a0000000000000000000000000000000000000000000000000000000008152600401610a839061168d565b60405180910390fd5b60003411610acf576040517f08c379a0000000000000000000000000000000000000000000000000000000008152600401610ac690611866565b60405180910390fd5b60006001600084815260200190815260200160002090508060040154348260050154610afb91906118b5565b1115610b3c576040517f08c379a0000000000000000000000000000000000000000000000000000000008152600401610b3390611935565b60405180910390fd5b8060060160009054906101000a900460ff1615610b8e576040517f08c379a0000000000000000000000000000000000000000000000000000000008152600401610b85906119a1565b60405180910390fd5b8060080160405180606001604052803373ffffffffffffffffffffffffffffffffffffffff16815260200134815260200142815250908060018154018082558091505060019003906000526020600020906003020160009091909190915060008201518160000160006101000a81548173ffffffffffffffffffffffffffffffffffffffff021916908373ffffffffffffffffffffffffffffffffffffffff1602179055506020820151816001015560408201518160020155505034816005016000828254610c5d91906118b5565b925050819055503373ffffffffffffffffffffffffffffffffffffffff16837f0b5b4c52969ff7329ecf7ee536409fda87812b15a8622bc6e8cdeab3aee14a2634604051610cab91906113aa565b60405180910390a3505050565b81600081118015610ccb57506000548111155b610d0a576040517f08c379a0000000000000000000000000000000000000000000000000000000008152600401610d019061168d565b60405180910390fd5b60006001600085815260200190815260200160002090508060030160009054906101000a900473ffffffffffffffffffffffffffffffffffffffff1673ffffffffffffffffffffffffffffffffffffffff163373ffffffffffffffffffffffffffffffffffffffff1614610db3576040517f08c379a0000000000000000000000000000000000000000000000000000000008152600401610daa906116f9565b60405180910390fd5b6000835111610df7576040517f08c379a0000000000000000000000000000000000000000000000000000000008152600401610dee90611a0d565b60405180910390fd5b82816007019081610e089190611bd9565b50837fe8fb48cf9c969f4b8933c271df021ee973ddc3f9c7b691bdc3dd074081b339b284604051610e399190611cab565b60405180910390a250505050565b60008111610e8a576040517f08c379a0000000000000000000000000000000000000000000000000000000008152600401610e8190611d19565b60405180910390fd5b600080815480929190610e9c90611d39565b9190505550600060016000805481526020019081526020016000209050600054816000018190555083816001019081610ed59190611bd9565b5082816002019081610ee79190611bd9565b50338160030160006101000a81548173ffffffffffffffffffffffffffffffffffffffff021916908373ffffffffffffffffffffffffffffffffffffffff1602179055508181600401819055506000816005018190555060008160060160006101000a81548160ff02191690831515021790555060405180602001604052806000815250816007019081610f7b9190611bd9565b506000547f6fc7a1de3ccfc251acab8f2f41819123cd49f5da653ad8e7d5ca2f5e8ff76572858433604051610fb293929190611d81565b60405180910390a250505050565b6000604051905090565b600080fd5b600080fd5b6000819050919050565b610fe781610fd4565b8114610ff257600080fd5b50565b60008135905061100481610fde565b92915050565b6000602082840312156110205761101f610fca565b5b600061102e84828501610ff5565b91505092915050565b61104081610fd4565b82525050565b600081519050919050565b600082825260208201905092915050565b60005b83811015611080578082015181840152602081019050611065565b60008484015250505050565b6000601f19601f8301169050919050565b60006110a882611046565b6110b28185611051565b93506110c2818560208601611062565b6110cb8161108c565b840191505092915050565b600073ffffffffffffffffffffffffffffffffffffffff82169050919050565b6000611101826110d6565b9050919050565b611111816110f6565b82525050565b60008115159050919050565b61112c81611117565b82525050565b600061010082019050611148600083018b611037565b818103602083015261115a818a61109d565b9050818103604083015261116e818961109d565b905061117d6060830188611108565b61118a6080830187611037565b61119760a0830186611037565b6111a460c0830185611123565b81810360e08301526111b6818461109d565b90509998505050505050505050565b60006111d0826110d6565b9050919050565b6111e0816111c5565b82525050565b6000610100820190506111fc600083018b611037565b818103602083015261120e818a61109d565b90508181036040830152611222818961109d565b905061123160608301886111d7565b61123e6080830187611037565b61124b60a0830186611037565b61125860c0830185611123565b81810360e083015261126a818461109d565b90509998505050505050505050565b600081519050919050565b600082825260208201905092915050565b6000819050602082019050919050565b6112ae816111c5565b82525050565b6112bd81610fd4565b82525050565b6060820160008201516112d960008501826112a5565b5060208201516112ec60208501826112b4565b5060408201516112ff60408501826112b4565b50505050565b600061131183836112c3565b60608301905092915050565b6000602082019050919050565b600061133582611279565b61133f8185611284565b935061134a83611295565b8060005b8381101561137b5781516113628882611305565b975061136d8361131d565b92505060018101905061134e565b5085935050505092915050565b600060208201905081810360008301526113a2818461132a565b905092915050565b60006020820190506113bf6000830184611037565b92915050565b600080fd5b600080fd5b7f4e487b7100000000000000000000000000000000000000000000000000000000600052604160045260246000fd5b6114078261108c565b810181811067ffffffffffffffff82111715611426576114256113cf565b5b80604052505050565b6000611439610fc0565b905061144582826113fe565b919050565b600067ffffffffffffffff821115611465576114646113cf565b5b61146e8261108c565b9050602081019050919050565b82818337600083830152505050565b600061149d6114988461144a565b61142f565b9050828152602081018484840111156114b9576114b86113ca565b5b6114c484828561147b565b509392505050565b600082601f8301126114e1576114e06113c5565b5b81356114f184826020860161148a565b91505092915050565b6000806040838503121561151157611510610fca565b5b600061151f85828601610ff5565b925050602083013567ffffffffffffffff8111156115405761153f610fcf565b5b61154c858286016114cc565b9150509250929050565b60008060006060848603121561156f5761156e610fca565b5b600084013567ffffffffffffffff81111561158d5761158c610fcf565b5b611599868287016114cc565b935050602084013567ffffffffffffffff8111156115ba576115b9610fcf565b5b6115c6868287016114cc565b92505060406115d786828701610ff5565b9150509250925092565b7f4e487b7100000000000000000000000000000000000000000000000000000000600052602260045260246000fd5b6000600282049050600182168061162857607f821691505b60208210810361163b5761163a6115e1565b5b50919050565b7f43616d706169676e20646f6573206e6f74206578697374000000000000000000600082015250565b6000611677601783611051565b915061168282611641565b602082019050919050565b600060208201905081810360008301526116a68161166a565b9050919050565b7f4f6e6c79206f776e657200000000000000000000000000000000000000000000600082015250565b60006116e3600a83611051565b91506116ee826116ad565b602082019050919050565b60006020820190508181036000830152611712816116d6565b9050919050565b7f416c72656164792077697468647261776e000000000000000000000000000000600082015250565b600061174f601183611051565b915061175a82611719565b602082019050919050565b6000602082019050818103600083015261177e81611742565b9050919050565b7f4e6f2066756e647320746f207769746864726177000000000000000000000000600082015250565b60006117bb601483611051565b91506117c682611785565b602082019050919050565b600060208201905081810360008301526117ea816117ae565b9050919050565b60006040820190506118066000830185611037565b61181360208301846111d7565b9392505050565b7f446f6e6174696f6e206d757374206265203e3000000000000000000000000000600082015250565b6000611850601383611051565b915061185b8261181a565b602082019050919050565b6000602082019050818103600083015261187f81611843565b9050919050565b7f4e487b7100000000000000000000000000000000000000000000000000000000600052601160045260246000fd5b60006118c082610fd4565b91506118cb83610fd4565b92508282019050808211156118e3576118e2611886565b5b92915050565b7f4578636565647320746172676574000000000000000000000000000000000000600082015250565b600061191f600e83611051565b915061192a826118e9565b602082019050919050565b6000602082019050818103600083015261194e81611912565b9050919050565b7f46756e647320616c72656164792077697468647261776e000000000000000000600082015250565b600061198b601783611051565b915061199682611955565b602082019050919050565b600060208201905081810360008301526119ba8161197e565b9050919050565b7f486173682063616e6e6f7420626520656d707479000000000000000000000000600082015250565b60006119f7601483611051565b9150611a02826119c1565b602082019050919050565b60006020820190508181036000830152611a26816119ea565b9050919050565b60008190508160005260206000209050919050565b60006020601f8301049050919050565b600082821b905092915050565b600060088302611a8f7fffffffffffffffffffffffffffffffffffffffffffffffffffffffffffffffff82611a52565b611a998683611a52565b95508019841693508086168417925050509392505050565b6000819050919050565b6000611ad6611ad1611acc84610fd4565b611ab1565b610fd4565b9050919050565b6000819050919050565b611af083611abb565b611b04611afc82611add565b848454611a5f565b825550505050565b600090565b611b19611b0c565b611b24818484611ae7565b505050565b5b81811015611b4857611b3d600082611b11565b600181019050611b2a565b5050565b601f821115611b8d57611b5e81611a2d565b611b6784611a42565b81016020851015611b76578190505b611b8a611b8285611a42565b830182611b29565b50505b505050565b600082821c905092915050565b6000611bb060001984600802611b92565b1980831691505092915050565b6000611bc98383611b9f565b9150826002028217905092915050565b611be282611046565b67ffffffffffffffff811115611bfb57611bfa6113cf565b5b611c058254611610565b611c10828285611b4c565b600060209050601f831160018114611c435760008415611c31578287015190505b611c3b8582611bbd565b865550611ca3565b601f198416611c5186611a2d565b60005b82811015611c7957848901518255600182019150602085019450602081019050611c54565b86831015611c965784890151611c92601f891682611b9f565b8355505b6001600288020188555050505b505050505050565b60006020820190508181036000830152611cc5818461109d565b905092915050565b7f546172676574206d757374206265203e30000000000000000000000000000000600082015250565b6000611d03601183611051565b9150611d0e82611ccd565b602082019050919050565b60006020820190508181036000830152611d3281611cf6565b9050919050565b6000611d4482610fd4565b91507fffffffffffffffffffffffffffffffffffffffffffffffffffffffffffffffff8203611d7657611d75611886565b5b600182019050919050565b60006060820190508181036000830152611d9b818661109d565b9050611daa6020830185611037565b611db760408301846111d7565b94935050505056fea2646970667358221220a99f56621e614103124ff4d23636884572cc96692853a50096bd72059d0b980c64736f6c63430008120033",
  "linkReferences": {},
  "deployedLinkReferences": {}
}